{
  "_format": "hh-sol-artifact-1",
  "contractName": "ICO",
  "sourceName": "contracts/ICO.sol",
  "abi": [
    {
      "inputs": [
        {
          "internalType": "address",
          "name": "_crntToken",
          "type": "address"
        },
        {
          "internalType": "address",
          "name": "_busdToken",
          "type": "address"
        },
        {
          "internalType": "address",
          "name": "_usdtToken",
          "type": "address"
        }
      ],
      "stateMutability": "nonpayable",
      "type": "constructor"
    },
    {
      "inputs": [
        {
          "internalType": "address",
          "name": "owner",
          "type": "address"
        }
      ],
      "name": "OwnableInvalidOwner",
      "type": "error"
    },
    {
      "inputs": [
        {
          "internalType": "address",
          "name": "account",
          "type": "address"
        }
      ],
      "name": "OwnableUnauthorizedAccount",
      "type": "error"
    },
    {
      "anonymous": false,
      "inputs": [
        {
          "indexed": true,
          "internalType": "address",
          "name": "previousOwner",
          "type": "address"
        },
        {
          "indexed": true,
          "internalType": "address",
          "name": "newOwner",
          "type": "address"
        }
      ],
      "name": "OwnershipTransferred",
      "type": "event"
    },
    {
      "anonymous": false,
      "inputs": [
        {
          "indexed": false,
          "internalType": "uint8",
          "name": "newStageIndex",
          "type": "uint8"
        }
      ],
      "name": "StageAdvanced",
      "type": "event"
    },
    {
      "anonymous": false,
      "inputs": [
        {
          "indexed": true,
          "internalType": "address",
          "name": "buyer",
          "type": "address"
        },
        {
          "indexed": false,
          "internalType": "uint256",
          "name": "amount",
          "type": "uint256"
        }
      ],
      "name": "TokensClaimed",
      "type": "event"
    },
    {
      "anonymous": false,
      "inputs": [
        {
          "indexed": true,
          "internalType": "address",
          "name": "buyer",
          "type": "address"
        },
        {
          "indexed": false,
          "internalType": "uint256",
          "name": "amount",
          "type": "uint256"
        }
      ],
      "name": "TokensPurchased",
      "type": "event"
    },
    {
      "inputs": [],
      "name": "busdToken",
      "outputs": [
        {
          "internalType": "contract IERC20",
          "name": "",
          "type": "address"
        }
      ],
      "stateMutability": "view",
      "type": "function"
    },
    {
      "inputs": [
        {
          "internalType": "uint256",
          "name": "amount",
          "type": "uint256"
        },
        {
          "internalType": "address",
          "name": "stablecoin",
          "type": "address"
        }
      ],
      "name": "buyTokens",
      "outputs": [],
      "stateMutability": "nonpayable",
      "type": "function"
    },
    {
      "inputs": [],
      "name": "claimTokens",
      "outputs": [],
      "stateMutability": "nonpayable",
      "type": "function"
    },
    {
      "inputs": [],
      "name": "crntToken",
      "outputs": [
        {
          "internalType": "contract IERC20",
          "name": "",
          "type": "address"
        }
      ],
      "stateMutability": "view",
      "type": "function"
    },
    {
      "inputs": [],
      "name": "currentStage",
      "outputs": [
        {
          "internalType": "uint8",
          "name": "",
          "type": "uint8"
        }
      ],
      "stateMutability": "view",
      "type": "function"
    },
    {
      "inputs": [
        {
          "internalType": "address",
          "name": "",
          "type": "address"
        }
      ],
      "name": "lastClaimTimestamp",
      "outputs": [
        {
          "internalType": "uint256",
          "name": "",
          "type": "uint256"
        }
      ],
      "stateMutability": "view",
      "type": "function"
    },
    {
      "inputs": [],
      "name": "owner",
      "outputs": [
        {
          "internalType": "address",
          "name": "",
          "type": "address"
        }
      ],
      "stateMutability": "view",
      "type": "function"
    },
    {
      "inputs": [
        {
          "internalType": "uint256",
          "name": "amount",
          "type": "uint256"
        }
      ],
      "name": "payForService",
      "outputs": [],
      "stateMutability": "nonpayable",
      "type": "function"
    },
    {
      "inputs": [
        {
          "internalType": "address",
          "name": "",
          "type": "address"
        }
      ],
      "name": "purchases",
      "outputs": [
        {
          "internalType": "uint256",
          "name": "",
          "type": "uint256"
        }
      ],
      "stateMutability": "view",
      "type": "function"
    },
    {
      "inputs": [],
      "name": "renounceOwnership",
      "outputs": [],
      "stateMutability": "nonpayable",
      "type": "function"
    },
    {
      "inputs": [
        {
          "internalType": "uint256",
          "name": "",
          "type": "uint256"
        }
      ],
      "name": "stages",
      "outputs": [
        {
          "internalType": "enum ICO.StageName",
          "name": "name",
          "type": "uint8"
        },
        {
          "internalType": "uint256",
          "name": "allocation",
          "type": "uint256"
        },
        {
          "internalType": "uint256",
          "name": "price",
          "type": "uint256"
        },
        {
          "internalType": "uint256",
          "name": "duration",
          "type": "uint256"
        },
        {
          "internalType": "uint256",
          "name": "startTime",
          "type": "uint256"
        },
        {
          "internalType": "uint256",
          "name": "tokensSold",
          "type": "uint256"
        }
      ],
      "stateMutability": "view",
      "type": "function"
    },
    {
      "inputs": [
        {
          "internalType": "address",
          "name": "newOwner",
          "type": "address"
        }
      ],
      "name": "transferOwnership",
      "outputs": [],
      "stateMutability": "nonpayable",
      "type": "function"
    },
    {
      "inputs": [],
      "name": "usdtToken",
      "outputs": [
        {
          "internalType": "contract IERC20",
          "name": "",
          "type": "address"
        }
      ],
      "stateMutability": "view",
      "type": "function"
    },
    {
      "inputs": [
        {
          "internalType": "address",
          "name": "stablecoin",
          "type": "address"
        },
        {
          "internalType": "uint256",
          "name": "amount",
          "type": "uint256"
        }
      ],
      "name": "withdrawFunds",
      "outputs": [],
      "stateMutability": "nonpayable",
      "type": "function"
    }
  ],
  "bytecode": "0x60806040523480156200001157600080fd5b50604051620020e0380380620020e083398181016040528101906200003791906200071a565b33600073ffffffffffffffffffffffffffffffffffffffff168173ffffffffffffffffffffffffffffffffffffffff1603620000ad5760006040517f1e4fbdf7000000000000000000000000000000000000000000000000000000008152600401620000a4919062000787565b60405180910390fd5b620000be81620005ec60201b60201c565b506001808190555082600260006101000a81548173ffffffffffffffffffffffffffffffffffffffff021916908373ffffffffffffffffffffffffffffffffffffffff16021790555081600360006101000a81548173ffffffffffffffffffffffffffffffffffffffff021916908373ffffffffffffffffffffffffffffffffffffffff16021790555080600460006101000a81548173ffffffffffffffffffffffffffffffffffffffff021916908373ffffffffffffffffffffffffffffffffffffffff1602179055506040518060c0016040528060006004811115620001ab57620001aa620007a4565b5b81526020016a039d2bf6eeadec68a00000815260200167016345785d8a00008152602001621e528081526020016000815260200160008152506005600060058110620001fc57620001fb620007d3565b5b6006020160008201518160000160006101000a81548160ff021916908360048111156200022e576200022d620007a4565b5b02179055506020820151816001015560408201518160020155606082015181600301556080820151816004015560a082015181600501559050506040518060c00160405280600160048111156200028a5762000289620007a4565b5b81526020016a083dbf4fede3af1ce0000081526020016701bc16d674ec800081526020016222470081526020016000815260200160008152506005600160058110620002db57620002da620007d3565b5b6006020160008201518160000160006101000a81548160ff021916908360048111156200030d576200030c620007a4565b5b02179055506020820151816001015560408201518160020155606082015181600301556080820151816004015560a082015181600501559050506040518060c0016040528060026004811115620003695762000368620007a4565b5b81526020016a0f31c97c3de2eb36a000008152602001670214e8348c4f0000815260200162263b8081526020016000815260200160008152506005600260058110620003ba57620003b9620007d3565b5b6006020160008201518160000160006101000a81548160ff02191690836004811115620003ec57620003eb620007a4565b5b02179055506020820151816001015560408201518160020155606082015181600301556080820151816004015560a082015181600501559050506040518060c0016040528060036004811115620004485762000447620007a4565b5b81526020016a1f66fa5a8c4dacb8e00000815260200167026db992a3b180008152602001621e528081526020016000815260200160008152506005600360058110620004995762000498620007d3565b5b6006020160008201518160000160006101000a81548160ff02191690836004811115620004cb57620004ca620007a4565b5b02179055506020820151816001015560408201518160020155606082015181600301556080820151816004015560a082015181600501559050506040518060c00160405280600480811115620005265762000525620007a4565b5b81526020016a2a461dcfb4c7454140000081526020016702c68af0bb140000815260200162263b8081526020016000815260200160008152506005600460058110620005775762000576620007d3565b5b6006020160008201518160000160006101000a81548160ff02191690836004811115620005a957620005a8620007a4565b5b02179055506020820151816001015560408201518160020155606082015181600301556080820151816004015560a0820151816005015590505050505062000802565b60008060009054906101000a900473ffffffffffffffffffffffffffffffffffffffff169050816000806101000a81548173ffffffffffffffffffffffffffffffffffffffff021916908373ffffffffffffffffffffffffffffffffffffffff1602179055508173ffffffffffffffffffffffffffffffffffffffff168173ffffffffffffffffffffffffffffffffffffffff167f8be0079c531659141344cd1fd0a4f28419497f9722a3daafe3b4186f6b6457e060405160405180910390a35050565b600080fd5b600073ffffffffffffffffffffffffffffffffffffffff82169050919050565b6000620006e282620006b5565b9050919050565b620006f481620006d5565b81146200070057600080fd5b50565b6000815190506200071481620006e9565b92915050565b600080600060608486031215620007365762000735620006b0565b5b6000620007468682870162000703565b9350506020620007598682870162000703565b92505060406200076c8682870162000703565b9150509250925092565b6200078181620006d5565b82525050565b60006020820190506200079e600083018462000776565b92915050565b7f4e487b7100000000000000000000000000000000000000000000000000000000600052602160045260246000fd5b7f4e487b7100000000000000000000000000000000000000000000000000000000600052603260045260246000fd5b6118ce80620008126000396000f3fe608060405234801561001057600080fd5b50600436106100ea5760003560e01c8063b19aed5f1161008c578063c625e9b111610066578063c625e9b11461022c578063dbec6def14610248578063de0e701414610264578063f2fde38b14610282576100ea565b8063b19aed5f146101c2578063bd9d518b146101e0578063c107532914610210576100ea565b8063842a77d3116100c8578063842a77d314610121578063845ddcb2146101515780638da5cb5b14610186578063a98ad46c146101a4576100ea565b806348c54b9d146100ef5780635bf5d54c146100f9578063715018a614610117575b600080fd5b6100f761029e565b005b6101016105ad565b60405161010e9190610f9d565b60405180910390f35b61011f6105c0565b005b61013b6004803603810190610136919061101b565b6105d4565b6040516101489190611061565b60405180910390f35b61016b600480360381019061016691906110a8565b6105ec565b60405161017d9695949392919061114c565b60405180910390f35b61018e61063b565b60405161019b91906111bc565b60405180910390f35b6101ac610664565b6040516101b99190611236565b60405180910390f35b6101ca61068a565b6040516101d79190611236565b60405180910390f35b6101fa60048036038101906101f5919061101b565b6106b0565b6040516102079190611061565b60405180910390f35b61022a60048036038101906102259190611251565b6106c8565b005b61024660048036038101906102419190611291565b610753565b005b610262600480360381019061025d91906110a8565b610c99565b005b61026c610d82565b6040516102799190611236565b60405180910390f35b61029c6004803603810190610297919061101b565b610da8565b005b6002600154036102e3576040517f08c379a00000000000000000000000000000000000000000000000000000000081526004016102da9061132e565b60405180910390fd5b6002600181905550600060646019602360003373ffffffffffffffffffffffffffffffffffffffff1673ffffffffffffffffffffffffffffffffffffffff1681526020019081526020016000205461033b919061137d565b61034591906113ee565b90506000811161038a576040517f08c379a00000000000000000000000000000000000000000000000000000000081526004016103819061146b565b60405180910390fd5b62278d00602560003373ffffffffffffffffffffffffffffffffffffffff1673ffffffffffffffffffffffffffffffffffffffff168152602001908152602001600020546103d8919061148b565b42101561041a576040517f08c379a00000000000000000000000000000000000000000000000000000000081526004016104119061150b565b60405180910390fd5b80602360003373ffffffffffffffffffffffffffffffffffffffff1673ffffffffffffffffffffffffffffffffffffffff1681526020019081526020016000206000828254610469919061152b565b9250508190555042602560003373ffffffffffffffffffffffffffffffffffffffff1673ffffffffffffffffffffffffffffffffffffffff16815260200190815260200160002081905550600260009054906101000a900473ffffffffffffffffffffffffffffffffffffffff1673ffffffffffffffffffffffffffffffffffffffff1663a9059cbb33836040518363ffffffff1660e01b815260040161051192919061155f565b6020604051808303816000875af1158015610530573d6000803e3d6000fd5b505050506040513d601f19601f8201168201806040525081019061055491906115c0565b503373ffffffffffffffffffffffffffffffffffffffff167f896e034966eaaf1adc54acc0f257056febbd300c9e47182cf761982cf1f5e4308260405161059b9190611061565b60405180910390a25060018081905550565b602460009054906101000a900460ff1681565b6105c8610e2e565b6105d26000610eb5565b565b60236020528060005260406000206000915090505481565b600581600581106105fc57600080fd5b600602016000915090508060000160009054906101000a900460ff16908060010154908060020154908060030154908060040154908060050154905086565b60008060009054906101000a900473ffffffffffffffffffffffffffffffffffffffff16905090565b600460009054906101000a900473ffffffffffffffffffffffffffffffffffffffff1681565b600260009054906101000a900473ffffffffffffffffffffffffffffffffffffffff1681565b60256020528060005260406000206000915090505481565b6106d0610e2e565b8173ffffffffffffffffffffffffffffffffffffffff1663a9059cbb33836040518363ffffffff1660e01b815260040161070b92919061155f565b6020604051808303816000875af115801561072a573d6000803e3d6000fd5b505050506040513d601f19601f8201168201806040525081019061074e91906115c0565b505050565b600260015403610798576040517f08c379a000000000000000000000000000000000000000000000000000000000815260040161078f9061132e565b60405180910390fd5b60026001819055506005602460009054906101000a900460ff1660ff16106107f5576040517f08c379a00000000000000000000000000000000000000000000000000000000081526004016107ec90611639565b60405180910390fd5b6005602460009054906101000a900460ff1660ff166005811061081b5761081a611659565b5b6006020160040154421015610865576040517f08c379a000000000000000000000000000000000000000000000000000000000815260040161085c906116d4565b60405180910390fd5b600082116108a8576040517f08c379a000000000000000000000000000000000000000000000000000000000815260040161089f90611740565b60405180910390fd5b8073ffffffffffffffffffffffffffffffffffffffff166323b872dd3330856040518463ffffffff1660e01b81526004016108e593929190611760565b6020604051808303816000875af1158015610904573d6000803e3d6000fd5b505050506040513d601f19601f8201168201806040525081019061092891906115c0565b5060006005602460009054906101000a900460ff1660ff166005811061095157610950611659565b5b6006020160020154670de0b6b3a76400008461096d919061137d565b61097791906113ee565b90506005602460009054906101000a900460ff1660ff166005811061099f5761099e611659565b5b60060201600501546005602460009054906101000a900460ff1660ff16600581106109cd576109cc611659565b5b60060201600101546109df919061152b565b811115610a21576040517f08c379a0000000000000000000000000000000000000000000000000000000008152600401610a18906117e3565b60405180910390fd5b80602360003373ffffffffffffffffffffffffffffffffffffffff1673ffffffffffffffffffffffffffffffffffffffff1681526020019081526020016000206000828254610a70919061148b565b92505081905550806005602460009054906101000a900460ff1660ff1660058110610a9e57610a9d611659565b5b600602016005016000828254610ab4919061148b565b925050819055503373ffffffffffffffffffffffffffffffffffffffff167f8f28852646c20cc973d3a8218f7eefed58c25c909f78f0265af4818c3d4dc27182604051610b019190611061565b60405180910390a26005602460009054906101000a900460ff1660ff1660058110610b2f57610b2e611659565b5b60060201600101546005602460009054906101000a900460ff1660ff1660058110610b5d57610b5c611659565b5b6006020160050154101580610bd757506005602460009054906101000a900460ff1660ff1660058110610b9357610b92611659565b5b60060201600301546005602460009054906101000a900460ff1660ff1660058110610bc157610bc0611659565b5b6006020160040154610bd3919061148b565b4210155b15610c8d576024600081819054906101000a900460ff1680929190610bfb90611803565b91906101000a81548160ff021916908360ff16021790555050426005602460009054906101000a900460ff1660ff1660058110610c3b57610c3a611659565b5b60060201600401819055507f087b6fa18a1c8e172c612787dcbe8b401b2e3e144cfd5be67730dfa0a3c18f79602460009054906101000a900460ff16604051610c849190610f9d565b60405180910390a15b50600180819055505050565b60008111610cdc576040517f08c379a0000000000000000000000000000000000000000000000000000000008152600401610cd390611878565b60405180910390fd5b600260009054906101000a900473ffffffffffffffffffffffffffffffffffffffff1673ffffffffffffffffffffffffffffffffffffffff166323b872dd3330846040518463ffffffff1660e01b8152600401610d3b93929190611760565b6020604051808303816000875af1158015610d5a573d6000803e3d6000fd5b505050506040513d601f19601f82011682018060405250810190610d7e91906115c0565b5050565b600360009054906101000a900473ffffffffffffffffffffffffffffffffffffffff1681565b610db0610e2e565b600073ffffffffffffffffffffffffffffffffffffffff168173ffffffffffffffffffffffffffffffffffffffff1603610e225760006040517f1e4fbdf7000000000000000000000000000000000000000000000000000000008152600401610e1991906111bc565b60405180910390fd5b610e2b81610eb5565b50565b610e36610f79565b73ffffffffffffffffffffffffffffffffffffffff16610e5461063b565b73ffffffffffffffffffffffffffffffffffffffff1614610eb357610e77610f79565b6040517f118cdaa7000000000000000000000000000000000000000000000000000000008152600401610eaa91906111bc565b60405180910390fd5b565b60008060009054906101000a900473ffffffffffffffffffffffffffffffffffffffff169050816000806101000a81548173ffffffffffffffffffffffffffffffffffffffff021916908373ffffffffffffffffffffffffffffffffffffffff1602179055508173ffffffffffffffffffffffffffffffffffffffff168173ffffffffffffffffffffffffffffffffffffffff167f8be0079c531659141344cd1fd0a4f28419497f9722a3daafe3b4186f6b6457e060405160405180910390a35050565b600033905090565b600060ff82169050919050565b610f9781610f81565b82525050565b6000602082019050610fb26000830184610f8e565b92915050565b600080fd5b600073ffffffffffffffffffffffffffffffffffffffff82169050919050565b6000610fe882610fbd565b9050919050565b610ff881610fdd565b811461100357600080fd5b50565b60008135905061101581610fef565b92915050565b60006020828403121561103157611030610fb8565b5b600061103f84828501611006565b91505092915050565b6000819050919050565b61105b81611048565b82525050565b60006020820190506110766000830184611052565b92915050565b61108581611048565b811461109057600080fd5b50565b6000813590506110a28161107c565b92915050565b6000602082840312156110be576110bd610fb8565b5b60006110cc84828501611093565b91505092915050565b7f4e487b7100000000000000000000000000000000000000000000000000000000600052602160045260246000fd5b60058110611115576111146110d5565b5b50565b600081905061112682611104565b919050565b600061113682611118565b9050919050565b6111468161112b565b82525050565b600060c082019050611161600083018961113d565b61116e6020830188611052565b61117b6040830187611052565b6111886060830186611052565b6111956080830185611052565b6111a260a0830184611052565b979650505050505050565b6111b681610fdd565b82525050565b60006020820190506111d160008301846111ad565b92915050565b6000819050919050565b60006111fc6111f76111f284610fbd565b6111d7565b610fbd565b9050919050565b600061120e826111e1565b9050919050565b600061122082611203565b9050919050565b61123081611215565b82525050565b600060208201905061124b6000830184611227565b92915050565b6000806040838503121561126857611267610fb8565b5b600061127685828601611006565b925050602061128785828601611093565b9150509250929050565b600080604083850312156112a8576112a7610fb8565b5b60006112b685828601611093565b92505060206112c785828601611006565b9150509250929050565b600082825260208201905092915050565b7f5265656e7472616e637947756172643a207265656e7472616e742063616c6c00600082015250565b6000611318601f836112d1565b9150611323826112e2565b602082019050919050565b600060208201905081810360008301526113478161130b565b9050919050565b7f4e487b7100000000000000000000000000000000000000000000000000000000600052601160045260246000fd5b600061138882611048565b915061139383611048565b92508282026113a181611048565b915082820484148315176113b8576113b761134e565b5b5092915050565b7f4e487b7100000000000000000000000000000000000000000000000000000000600052601260045260246000fd5b60006113f982611048565b915061140483611048565b925082611414576114136113bf565b5b828204905092915050565b7f4e6f20746f6b656e7320617661696c61626c6520666f722072656c6561736500600082015250565b6000611455601f836112d1565b91506114608261141f565b602082019050919050565b6000602082019050818103600083015261148481611448565b9050919050565b600061149682611048565b91506114a183611048565b92508282019050808211156114b9576114b861134e565b5b92915050565b7f436c61696d20706572696f64206e6f7420726561636865640000000000000000600082015250565b60006114f56018836112d1565b9150611500826114bf565b602082019050919050565b60006020820190508181036000830152611524816114e8565b9050919050565b600061153682611048565b915061154183611048565b92508282039050818111156115595761155861134e565b5b92915050565b600060408201905061157460008301856111ad565b6115816020830184611052565b9392505050565b60008115159050919050565b61159d81611588565b81146115a857600080fd5b50565b6000815190506115ba81611594565b92915050565b6000602082840312156115d6576115d5610fb8565b5b60006115e4848285016115ab565b91505092915050565b7f49434f2073746167657320636f6d706c65746564000000000000000000000000600082015250565b60006116236014836112d1565b915061162e826115ed565b602082019050919050565b6000602082019050818103600083015261165281611616565b9050919050565b7f4e487b7100000000000000000000000000000000000000000000000000000000600052603260045260246000fd5b7f5374616765206e6f742073746172746564000000000000000000000000000000600082015250565b60006116be6011836112d1565b91506116c982611688565b602082019050919050565b600060208201905081810360008301526116ed816116b1565b9050919050565b7f496e76616c696420707572636861736520616d6f756e74000000000000000000600082015250565b600061172a6017836112d1565b9150611735826116f4565b602082019050919050565b600060208201905081810360008301526117598161171d565b9050919050565b600060608201905061177560008301866111ad565b61178260208301856111ad565b61178f6040830184611052565b949350505050565b7f537461676520616c6c6f636174696f6e20657863656564656400000000000000600082015250565b60006117cd6019836112d1565b91506117d882611797565b602082019050919050565b600060208201905081810360008301526117fc816117c0565b9050919050565b600061180e82610f81565b915060ff82036118215761182061134e565b5b600182019050919050565b7f496e76616c6964207365727669636520616d6f756e7400000000000000000000600082015250565b60006118626016836112d1565b915061186d8261182c565b602082019050919050565b6000602082019050818103600083015261189181611855565b905091905056fea2646970667358221220eb41d6772e39e595a6f073e73f265aba3756329998cc826772f63ddb8508ba9164736f6c63430008140033",
  "linkReferences": {},
  "deployedLinkReferences": {}
}