{
  "_format": "hh-sol-artifact-1",
  "contractName": "Staking",
  "sourceName": "contracts/Staking.sol",
  "abi": [
    {
      "inputs": [],
      "stateMutability": "nonpayable",
      "type": "constructor"
    },
    {
      "inputs": [
        {
          "internalType": "address",
          "name": "owner",
          "type": "address"
        }
      ],
      "name": "OwnableInvalidOwner",
      "type": "error"
    },
    {
      "inputs": [
        {
          "internalType": "address",
          "name": "account",
          "type": "address"
        }
      ],
      "name": "OwnableUnauthorizedAccount",
      "type": "error"
    },
    {
      "anonymous": false,
      "inputs": [
        {
          "indexed": true,
          "internalType": "address",
          "name": "previousOwner",
          "type": "address"
        },
        {
          "indexed": true,
          "internalType": "address",
          "name": "newOwner",
          "type": "address"
        }
      ],
      "name": "OwnershipTransferred",
      "type": "event"
    },
    {
      "anonymous": false,
      "inputs": [
        {
          "indexed": true,
          "internalType": "address",
          "name": "user",
          "type": "address"
        },
        {
          "indexed": false,
          "internalType": "uint256",
          "name": "reward",
          "type": "uint256"
        }
      ],
      "name": "RewardsClaimed",
      "type": "event"
    },
    {
      "anonymous": false,
      "inputs": [
        {
          "indexed": true,
          "internalType": "address",
          "name": "user",
          "type": "address"
        },
        {
          "indexed": false,
          "internalType": "uint256",
          "name": "amount",
          "type": "uint256"
        }
      ],
      "name": "Staked",
      "type": "event"
    },
    {
      "anonymous": false,
      "inputs": [
        {
          "indexed": true,
          "internalType": "address",
          "name": "user",
          "type": "address"
        },
        {
          "indexed": false,
          "internalType": "uint256",
          "name": "amount",
          "type": "uint256"
        }
      ],
      "name": "Withdrawn",
      "type": "event"
    },
    {
      "inputs": [],
      "name": "MINIMUM_STAKE",
      "outputs": [
        {
          "internalType": "uint256",
          "name": "",
          "type": "uint256"
        }
      ],
      "stateMutability": "view",
      "type": "function"
    },
    {
      "inputs": [],
      "name": "REWARD_RATE",
      "outputs": [
        {
          "internalType": "uint256",
          "name": "",
          "type": "uint256"
        }
      ],
      "stateMutability": "view",
      "type": "function"
    },
    {
      "inputs": [],
      "name": "SECONDS_IN_YEAR",
      "outputs": [
        {
          "internalType": "uint256",
          "name": "",
          "type": "uint256"
        }
      ],
      "stateMutability": "view",
      "type": "function"
    },
    {
      "inputs": [
        {
          "internalType": "address",
          "name": "",
          "type": "address"
        }
      ],
      "name": "balances",
      "outputs": [
        {
          "internalType": "uint256",
          "name": "",
          "type": "uint256"
        }
      ],
      "stateMutability": "view",
      "type": "function"
    },
    {
      "inputs": [
        {
          "internalType": "address",
          "name": "staker",
          "type": "address"
        }
      ],
      "name": "calculateReward",
      "outputs": [
        {
          "internalType": "uint256",
          "name": "",
          "type": "uint256"
        }
      ],
      "stateMutability": "view",
      "type": "function"
    },
    {
      "inputs": [],
      "name": "claimRewards",
      "outputs": [],
      "stateMutability": "nonpayable",
      "type": "function"
    },
    {
      "inputs": [],
      "name": "crntToken",
      "outputs": [
        {
          "internalType": "contract IERC20",
          "name": "",
          "type": "address"
        }
      ],
      "stateMutability": "view",
      "type": "function"
    },
    {
      "inputs": [],
      "name": "owner",
      "outputs": [
        {
          "internalType": "address",
          "name": "",
          "type": "address"
        }
      ],
      "stateMutability": "view",
      "type": "function"
    },
    {
      "inputs": [],
      "name": "renounceOwnership",
      "outputs": [],
      "stateMutability": "nonpayable",
      "type": "function"
    },
    {
      "inputs": [
        {
          "internalType": "address",
          "name": "",
          "type": "address"
        }
      ],
      "name": "rewardDebt",
      "outputs": [
        {
          "internalType": "uint256",
          "name": "",
          "type": "uint256"
        }
      ],
      "stateMutability": "view",
      "type": "function"
    },
    {
      "inputs": [
        {
          "internalType": "uint256",
          "name": "amount",
          "type": "uint256"
        }
      ],
      "name": "stake",
      "outputs": [],
      "stateMutability": "nonpayable",
      "type": "function"
    },
    {
      "inputs": [
        {
          "internalType": "address",
          "name": "newOwner",
          "type": "address"
        }
      ],
      "name": "transferOwnership",
      "outputs": [],
      "stateMutability": "nonpayable",
      "type": "function"
    },
    {
      "inputs": [
        {
          "internalType": "uint256",
          "name": "amount",
          "type": "uint256"
        }
      ],
      "name": "withdraw",
      "outputs": [],
      "stateMutability": "nonpayable",
      "type": "function"
    }
  ],
  "bytecode": "0x608060405234801561001057600080fd5b5033600073ffffffffffffffffffffffffffffffffffffffff168173ffffffffffffffffffffffffffffffffffffffff16036100845760006040517f1e4fbdf700000000000000000000000000000000000000000000000000000000815260040161007b91906101a5565b60405180910390fd5b610093816100a060201b60201c565b50600180819055506101c0565b60008060009054906101000a900473ffffffffffffffffffffffffffffffffffffffff169050816000806101000a81548173ffffffffffffffffffffffffffffffffffffffff021916908373ffffffffffffffffffffffffffffffffffffffff1602179055508173ffffffffffffffffffffffffffffffffffffffff168173ffffffffffffffffffffffffffffffffffffffff167f8be0079c531659141344cd1fd0a4f28419497f9722a3daafe3b4186f6b6457e060405160405180910390a35050565b600073ffffffffffffffffffffffffffffffffffffffff82169050919050565b600061018f82610164565b9050919050565b61019f81610184565b82525050565b60006020820190506101ba6000830184610196565b92915050565b6111a080620001d06000396000f3fe608060405234801561001057600080fd5b50600436106100cf5760003560e01c80635dcc93911161008c578063a694fc3a11610066578063a694fc3a146101dc578063b19aed5f146101f8578063d82e396214610216578063f2fde38b14610246576100cf565b80635dcc939114610196578063715018a6146101b45780638da5cb5b146101be576100cf565b806308dbbb03146100d457806327e235e3146100f25780632e1a7d4d14610122578063372500ab1461013e5780635873eb9b146101485780635997bb3714610178575b600080fd5b6100dc610262565b6040516100e99190610c03565b60405180910390f35b61010c60048036038101906101079190610c81565b61026f565b6040516101199190610c03565b60405180910390f35b61013c60048036038101906101379190610cda565b610287565b005b6101466104ad565b005b610162600480360381019061015d9190610c81565b6106e3565b60405161016f9190610c03565b60405180910390f35b6101806106fb565b60405161018d9190610c03565b60405180910390f35b61019e610700565b6040516101ab9190610c03565b60405180910390f35b6101bc610708565b005b6101c661071c565b6040516101d39190610d16565b60405180910390f35b6101f660048036038101906101f19190610cda565b610745565b005b61020061097b565b60405161020d9190610d90565b60405180910390f35b610230600480360381019061022b9190610c81565b6109a1565b60405161023d9190610c03565b60405180910390f35b610260600480360381019061025b9190610c81565b610a11565b005b683635c9adc5dea0000081565b60036020528060005260406000206000915090505481565b6002600154036102cc576040517f08c379a00000000000000000000000000000000000000000000000000000000081526004016102c390610e08565b60405180910390fd5b600260018190555080600360003373ffffffffffffffffffffffffffffffffffffffff1673ffffffffffffffffffffffffffffffffffffffff168152602001908152602001600020541015610356576040517f08c379a000000000000000000000000000000000000000000000000000000000815260040161034d90610e74565b60405180910390fd5b61035e6104ad565b80600360003373ffffffffffffffffffffffffffffffffffffffff1673ffffffffffffffffffffffffffffffffffffffff16815260200190815260200160002060008282546103ad9190610ec3565b92505081905550600260009054906101000a900473ffffffffffffffffffffffffffffffffffffffff1673ffffffffffffffffffffffffffffffffffffffff1663a9059cbb33836040518363ffffffff1660e01b8152600401610411929190610ef7565b6020604051808303816000875af1158015610430573d6000803e3d6000fd5b505050506040513d601f19601f820116820180604052508101906104549190610f58565b503373ffffffffffffffffffffffffffffffffffffffff167f7084f5476618d8e60b11ef0d7d3f06914655adb8793e28ff7f018d4c76d505d58260405161049b9190610c03565b60405180910390a26001808190555050565b6002600154036104f2576040517f08c379a00000000000000000000000000000000000000000000000000000000081526004016104e990610e08565b60405180910390fd5b60026001819055506000600460003373ffffffffffffffffffffffffffffffffffffffff1673ffffffffffffffffffffffffffffffffffffffff16815260200190815260200160002054610545336109a1565b61054f9190610ec3565b905060008111610594576040517f08c379a000000000000000000000000000000000000000000000000000000000815260040161058b90610fd1565b60405180910390fd5b600260009054906101000a900473ffffffffffffffffffffffffffffffffffffffff1673ffffffffffffffffffffffffffffffffffffffff1663a9059cbb33836040518363ffffffff1660e01b81526004016105f1929190610ef7565b6020604051808303816000875af1158015610610573d6000803e3d6000fd5b505050506040513d601f19601f820116820180604052508101906106349190610f58565b5080600460003373ffffffffffffffffffffffffffffffffffffffff1673ffffffffffffffffffffffffffffffffffffffff16815260200190815260200160002060008282546106849190610ff1565b925050819055503373ffffffffffffffffffffffffffffffffffffffff167ffc30cddea38e2bf4d6ea7d3f9ed3b6ad7f176419f4963bd81318067a4aee73fe826040516106d19190610c03565b60405180910390a25060018081905550565b60046020528060005260406000206000915090505481565b600f81565b6301e1338081565b610710610a97565b61071a6000610b1e565b565b60008060009054906101000a900473ffffffffffffffffffffffffffffffffffffffff16905090565b60026001540361078a576040517f08c379a000000000000000000000000000000000000000000000000000000000815260040161078190610e08565b60405180910390fd5b6002600181905550683635c9adc5dea000008110156107de576040517f08c379a00000000000000000000000000000000000000000000000000000000081526004016107d590611071565b60405180910390fd5b600260009054906101000a900473ffffffffffffffffffffffffffffffffffffffff1673ffffffffffffffffffffffffffffffffffffffff166323b872dd3330846040518463ffffffff1660e01b815260040161083d93929190611091565b6020604051808303816000875af115801561085c573d6000803e3d6000fd5b505050506040513d601f19601f820116820180604052508101906108809190610f58565b5080600360003373ffffffffffffffffffffffffffffffffffffffff1673ffffffffffffffffffffffffffffffffffffffff16815260200190815260200160002060008282546108d09190610ff1565b925050819055506108e0336109a1565b600460003373ffffffffffffffffffffffffffffffffffffffff1673ffffffffffffffffffffffffffffffffffffffff168152602001908152602001600020819055503373ffffffffffffffffffffffffffffffffffffffff167f9e71bc8eea02a63969f509818f2dafb9254532904319f9dbda79b67bd34a5f3d826040516109699190610c03565b60405180910390a26001808190555050565b600260009054906101000a900473ffffffffffffffffffffffffffffffffffffffff1681565b600060646301e13380600f600360008673ffffffffffffffffffffffffffffffffffffffff1673ffffffffffffffffffffffffffffffffffffffff168152602001908152602001600020546109f691906110c8565b610a0091906110c8565b610a0a9190611139565b9050919050565b610a19610a97565b600073ffffffffffffffffffffffffffffffffffffffff168173ffffffffffffffffffffffffffffffffffffffff1603610a8b5760006040517f1e4fbdf7000000000000000000000000000000000000000000000000000000008152600401610a829190610d16565b60405180910390fd5b610a9481610b1e565b50565b610a9f610be2565b73ffffffffffffffffffffffffffffffffffffffff16610abd61071c565b73ffffffffffffffffffffffffffffffffffffffff1614610b1c57610ae0610be2565b6040517f118cdaa7000000000000000000000000000000000000000000000000000000008152600401610b139190610d16565b60405180910390fd5b565b60008060009054906101000a900473ffffffffffffffffffffffffffffffffffffffff169050816000806101000a81548173ffffffffffffffffffffffffffffffffffffffff021916908373ffffffffffffffffffffffffffffffffffffffff1602179055508173ffffffffffffffffffffffffffffffffffffffff168173ffffffffffffffffffffffffffffffffffffffff167f8be0079c531659141344cd1fd0a4f28419497f9722a3daafe3b4186f6b6457e060405160405180910390a35050565b600033905090565b6000819050919050565b610bfd81610bea565b82525050565b6000602082019050610c186000830184610bf4565b92915050565b600080fd5b600073ffffffffffffffffffffffffffffffffffffffff82169050919050565b6000610c4e82610c23565b9050919050565b610c5e81610c43565b8114610c6957600080fd5b50565b600081359050610c7b81610c55565b92915050565b600060208284031215610c9757610c96610c1e565b5b6000610ca584828501610c6c565b91505092915050565b610cb781610bea565b8114610cc257600080fd5b50565b600081359050610cd481610cae565b92915050565b600060208284031215610cf057610cef610c1e565b5b6000610cfe84828501610cc5565b91505092915050565b610d1081610c43565b82525050565b6000602082019050610d2b6000830184610d07565b92915050565b6000819050919050565b6000610d56610d51610d4c84610c23565b610d31565b610c23565b9050919050565b6000610d6882610d3b565b9050919050565b6000610d7a82610d5d565b9050919050565b610d8a81610d6f565b82525050565b6000602082019050610da56000830184610d81565b92915050565b600082825260208201905092915050565b7f5265656e7472616e637947756172643a207265656e7472616e742063616c6c00600082015250565b6000610df2601f83610dab565b9150610dfd82610dbc565b602082019050919050565b60006020820190508181036000830152610e2181610de5565b9050919050565b7f496e73756666696369656e742062616c616e6365000000000000000000000000600082015250565b6000610e5e601483610dab565b9150610e6982610e28565b602082019050919050565b60006020820190508181036000830152610e8d81610e51565b9050919050565b7f4e487b7100000000000000000000000000000000000000000000000000000000600052601160045260246000fd5b6000610ece82610bea565b9150610ed983610bea565b9250828203905081811115610ef157610ef0610e94565b5b92915050565b6000604082019050610f0c6000830185610d07565b610f196020830184610bf4565b9392505050565b60008115159050919050565b610f3581610f20565b8114610f4057600080fd5b50565b600081519050610f5281610f2c565b92915050565b600060208284031215610f6e57610f6d610c1e565b5b6000610f7c84828501610f43565b91505092915050565b7f4e6f207265776172647320746f20636c61696d00000000000000000000000000600082015250565b6000610fbb601383610dab565b9150610fc682610f85565b602082019050919050565b60006020820190508181036000830152610fea81610fae565b9050919050565b6000610ffc82610bea565b915061100783610bea565b925082820190508082111561101f5761101e610e94565b5b92915050565b7f416d6f756e742062656c6f77206d696e696d756d207374616b65000000000000600082015250565b600061105b601a83610dab565b915061106682611025565b602082019050919050565b6000602082019050818103600083015261108a8161104e565b9050919050565b60006060820190506110a66000830186610d07565b6110b36020830185610d07565b6110c06040830184610bf4565b949350505050565b60006110d382610bea565b91506110de83610bea565b92508282026110ec81610bea565b9150828204841483151761110357611102610e94565b5b5092915050565b7f4e487b7100000000000000000000000000000000000000000000000000000000600052601260045260246000fd5b600061114482610bea565b915061114f83610bea565b92508261115f5761115e61110a565b5b82820490509291505056fea26469706673582212201e21be3efd61e6151070ca78365a2e2bf03dcd98b7dc2066f005714becdea57964736f6c63430008140033",
  "linkReferences": {},
  "deployedLinkReferences": {}
}